:020000040000FA
:020000000528D1
:0800080046288316031381133F
:10001000831603130F30860083160313950083168F
:100020000317880183160313880183120313FF301B
:1000300086008312031388018613861DCF30061DA8
:100040009930861CF830061CC03086170613861DB2
:10005000A430061D9230861C8030061C8E30061798
:100060008612861DB030061D8230861C9830061C14
:10007000863086160612861D8830061D8330861C43
:10008000C630061CA130061688001C280000090096
:043000000034003464
:00000001FF
