:020000040000FA
:020000000528D1
:08000800432883160317890148
:1000100083160313F03086008316031788018316B6
:10002000031387018312031386018701A0012008AF
:100030000614061A0D30861A0E30061B0F30861B6A
:10004000003006108614061A0C30861A0930061B7A
:100050000830861B073086100615061A0B30861AE4
:100060000630061B0530861B043006118615061A5D
:100070000A30861A0330061B0230861B01308611B7
:0A008000A000870017280000090007
:043000000034003464
:00000001FF
